S00C0000553641352E7372656317
S11300000C9456000C9460000C9460000C946000F6
S11300100C9460000C9460000C9460000C946000DC
S11300200C9460000C9460000C9460000C946000CC
S11300300C9460000C9460000C9460000C946000BC
S11300400C9460000C9460000C9460000C946000AC
S11300500C9460000C9460000C9460000C9460009C
S11300600C9460000C9460000C9460000C9460008C
S11300700C9460000C9460000C9460000C9460007C
S11300800C9460000C9460000C9460000C9460006C
S11300900C9460000C9460000C9460000C9460005C
S11300A00C9460000C9460000C94600011241FBE3A
S11300B0CFEFDAE0DEBFCDBF0E9462000C947C007B
S11300C00C94000084B1826084B98AB18F7B8AB9B0
S11300D029B130E001C0282F89B1922F982796FFCB
S11300E0FBCF86FFF8CF3F5F3330A9F723B192E00F
S10F00F0922795B930E0EFCFF894FFCFD1
S9030000FC
