S00C0000553741322E7372656319
S11300000C9456000C9473000C9473000C947300BD
S11300100C9473000C9473000C9473000C94730090
S11300200C9473000C9473000C9473000C94730080
S11300300C9473000C9473000C9473000C94730070
S11300400C9473000C9473000C9473000C94730060
S11300500C9473000C9473000C9473000C947E0045
S11300600C9473000C9473000C9473000C94730040
S11300700C9473000C9473000C9473000C94730030
S11300800C9473000C9473000C9473000C94730020
S11300900C9473000C9473000C9473000C94730010
S11300A00C9473000C9473000C94730011241FBE01
S11300B0CFEFDAE0DEBFCDBF11E0A0E0B1E0E2E8CF
S11300C0F1E002C005900D92A030B107D9F721E00C
S11300D0A0E0B1E001C01D92A130B207E1F70E9497
S11300E075000C94BF000C94000084B1816084B945
S11300F00E94B1007894FFCF86BD08951F920F929D
S11301000FB60F9211242F933F934F935F936F93E6
S11301107F938F939F93AF93BF93EF93FF9382EB60
S11301200E947C0080910001815080930001811124
S113013007C089E18093000193B181E0892785B9E3
S1130140FF91EF91BF91AF919F918F917F916F91AB
S11301505F914F913F912F910F900FBE0F901F9081
S1130160189589E18093000185E085BD82EB0E94AA
S11301707C00EEE6F0E08081816080830895F8944D
S1050180FFCFAB
S9030000FC
