S00C0000553641382E7372656314
S11300000C9456000C9473000C9473000C947300BD
S11300100C9473000C9473000C9473000C94730090
S11300200C9473000C9473000C9473000C94730080
S11300300C9473000C9473000C9473000C94730070
S11300400C9473000C9473000C9473000C94730060
S11300500C9473000C9496000C9473000C9475002B
S11300600C9473000C9473000C9473000C94730040
S11300700C9473000C9473000C9473000C94730030
S11300800C9473000C9473000C9473000C94730020
S11300900C9473000C9473000C9473000C94730010
S11300A00C9473000C9473000C94730011241FBE01
S11300B0CFEFDAE0DEBFCDBF11E0A0E0B1E0EEE7C4
S11300C0F1E002C005900D92A030B107D9F721E00C
S11300D0A0E0B1E001C01D92A130B207E1F70E9497
S11300E0A5000C94BD000C9400001F920F920FB653
S11300F00F9211248F939F9382EB86BD83B182600C
S113010085B980910001815080930001811107C05D
S113011089E18093000193B181E0892785B99F919A
S11301208F910F900FBE0F901F9018951F920F92F2
S11301300FB60F9211248F9383B18D7F85B98F9160
S11301400F900FBE0F901F90189589E180930001C6
S113015084B1836084B985E085BD82EB86BD83E08C
S113016080936E008AEB87BD789489B1807790E0A4
S1110170959587958D5487BDF8CFF894FFCFF1
S9030000FC
