:100000000C9456000C9473000C9473000C947300C1
:100010000C9473000C9473000C9473000C94730094
:100020000C9473000C9473000C9435010C94C40070
:100030000C9473000C9473000C9473000C94730074
:100040000C9473000C9473000C9473000C94730064
:100050000C9473000C9473000C9473000C94730054
:100060000C9473000C9473000C9473000C94730044
:100070000C9473000C9473000C9473000C94730034
:100080000C9473000C9473000C9473000C94730024
:100090000C9473000C9473000C9473000C94730014
:1000A0000C9473000C9473000C94730011241FBE05
:1000B000CFEFDAE0DEBFCDBF11E0A0E0B1E0E2EECD
:1000C000F2E002C005900D92A030B107D9F721E00F
:1000D000A0E0B1E001C01D92A030B207E1F70E949C
:1000E00075000C946F010C9400000E9479007894C4
:1000F000FFCFE8EDF0E080818069808380818160BE
:100100008083089580E00CC02091F40030E0082E38
:1001100002C0359527950A94E2F720FD04C08F5F51
:10012000883090F380E008958091E80083FF05C057
:10013000E8EEF0E08081877F80830895E1EFF0E0D2
:1001400010821082E8EEF0E080818E7F80838081D3
:100150008F7780830895E8EEF0E080818E7F808342
:1001600080818F77808308958091E80082FF0BC0A3
:10017000E8EEF0E080818B7F808380818B7F8083BD
:1001800080818F77808308951F920F920FB60F9210
:1001900011242F933F934F935F936F937F938F938C
:1001A0009F93AF93BF93EF93FF931AC00E94820077
:1001B0008093E900813049F028F0823049F08330A3
:1001C00051F00CC00E9494000BC00E949E0008C019
:1001D0000E94AB0005C00E94B40002C01092E8006B
:1001E0008091F4008111E2CFFF91EF91BF91AF9127
:1001F0009F918F917F916F915F914F913F912F913F
:100200000F900FBE0F901F9018958BEF8093E10019
:100210000895E1EEF0E08FEE8083A8EDB0E08C91E0
:1002200080628C9383B7817F846083BF83B7816052
:1002300083BF889583B78E7F83BF8EEF80830895B9
:100240008FEE8093E100E2EEF0E080818F7E80838C
:100250000895E2EEF0E080818F7E808380818F7D43
:1002600080838FED8093E10008951F920F920FB667
:100270000F9211242F933F934F935F936F937F932C
:100280008F939F93AF93BF93EF93FF938091DA0087
:10029000E1EEF0E08081808182FD0E940501809185
:1002A000E10080FD0E9409018091E10084FD0E942F
:1002B00020018091E10085FD0E942901FF91EF91CD
:1002C000BF91AF919F918F917F916F915F914F916E
:1002D0003F912F910F900FBE0F901F901895F8949B
:0202E000FFCF4E
:00000001FF
