:100000000C9456000C9460000C9460000C946000FA
:100010000C9460000C9460000C9460000C946000E0
:100020000C9460000C9460000C9460000C946000D0
:100030000C9460000C9460000C9460000C946000C0
:100040000C9460000C9460000C9460000C946000B0
:100050000C9460000C9460000C9460000C946000A0
:100060000C9460000C9460000C9460000C94600090
:100070000C9460000C9460000C9460000C94600080
:100080000C9462000C9460000C9460000C9460006E
:100090000C9460000C9460000C9460000C94600060
:1000A0000C9460000C9460000C94600011241FBE3E
:1000B000CFEFDAE0DEBFCDBF0E9474000C949A004F
:1000C0000C9400001F920F920FB60F9211248F9381
:1000D0009F9395B181E0892785B99F918F910F906A
:1000E0000FBE0F901F90189584B1836084B9109251
:1000F00090008CE08093910082E19AE790939900C0
:1001000080939800E1E7F0E080818260808383B78C
:10011000817F83BF789483B7816083BF889583B7DD
:100120008E7F83BF9FB7F89425B182E0822785B97F
:080130009FBFF1CFF894FFCF4F
:00000001FF
