S00C0000553641372E7372656315
S11300000C9456000C9473000C9473000C947300BD
S11300100C9473000C9473000C9473000C94730090
S11300200C9473000C9473000C9473000C94730080
S11300300C9473000C9473000C9473000C94730070
S11300400C9473000C9473000C9473000C94730060
S11300500C9473000C9473000C9473000C9475004E
S11300600C9473000C9473000C9473000C94730040
S11300700C9473000C9473000C9473000C94730030
S11300800C9473000C9473000C9473000C94730020
S11300900C9473000C9473000C9473000C94730010
S11300A00C9473000C9473000C94730011241FBE01
S11300B0CFEFDAE0DEBFCDBF11E0A0E0B1E0E8E4CD
S11300C0F1E002C005900D92A030B107D9F721E00C
S11300D0A0E0B1E001C01D92A130B207E1F70E9497
S11300E093000C94A2000C9400001F920F920FB680
S11300F00F9211248F939F9382EB86BD8091000110
S1130100815080930001811107C089E1809300012F
S113011093B181E0892785B99F918F910F900FBE8C
S11301200F901F90189589E18093000184B1876036
S113013084B985E085BD82EB86BD81E080936E0045
S10B01407894FFCFF894FFCF7F
S9030000FC
